{
  "_format": "hh-sol-artifact-1",
  "contractName": "DeBeToken",
  "sourceName": "contracts/DeBeToken.sol",
  "abi": [
    {
      "inputs": [],
      "stateMutability": "nonpayable",
      "type": "constructor"
    },
    {
      "anonymous": false,
      "inputs": [
        {
          "indexed": true,
          "internalType": "address",
          "name": "owner",
          "type": "address"
        },
        {
          "indexed": true,
          "internalType": "address",
          "name": "spender",
          "type": "address"
        },
        {
          "indexed": false,
          "internalType": "uint256",
          "name": "value",
          "type": "uint256"
        }
      ],
      "name": "Approval",
      "type": "event"
    },
    {
      "anonymous": false,
      "inputs": [
        {
          "indexed": true,
          "internalType": "address",
          "name": "delegator",
          "type": "address"
        },
        {
          "indexed": true,
          "internalType": "address",
          "name": "fromDelegate",
          "type": "address"
        },
        {
          "indexed": true,
          "internalType": "address",
          "name": "toDelegate",
          "type": "address"
        }
      ],
      "name": "DelegateChanged",
      "type": "event"
    },
    {
      "anonymous": false,
      "inputs": [
        {
          "indexed": true,
          "internalType": "address",
          "name": "delegate",
          "type": "address"
        },
        {
          "indexed": false,
          "internalType": "uint256",
          "name": "previousBalance",
          "type": "uint256"
        },
        {
          "indexed": false,
          "internalType": "uint256",
          "name": "newBalance",
          "type": "uint256"
        }
      ],
      "name": "DelegateVotesChanged",
      "type": "event"
    },
    {
      "anonymous": false,
      "inputs": [
        {
          "indexed": true,
          "internalType": "address",
          "name": "previousOwner",
          "type": "address"
        },
        {
          "indexed": true,
          "internalType": "address",
          "name": "newOwner",
          "type": "address"
        }
      ],
      "name": "OwnershipTransferred",
      "type": "event"
    },
    {
      "anonymous": false,
      "inputs": [
        {
          "indexed": false,
          "internalType": "uint256",
          "name": "id",
          "type": "uint256"
        }
      ],
      "name": "Snapshot",
      "type": "event"
    },
    {
      "anonymous": false,
      "inputs": [
        {
          "indexed": true,
          "internalType": "address",
          "name": "from",
          "type": "address"
        },
        {
          "indexed": true,
          "internalType": "address",
          "name": "to",
          "type": "address"
        },
        {
          "indexed": false,
          "internalType": "uint256",
          "name": "value",
          "type": "uint256"
        }
      ],
      "name": "Transfer",
      "type": "event"
    },
    {
      "inputs": [],
      "name": "DOMAIN_SEPARATOR",
      "outputs": [
        {
          "internalType": "bytes32",
          "name": "",
          "type": "bytes32"
        }
      ],
      "stateMutability": "view",
      "type": "function"
    },
    {
      "inputs": [
        {
          "internalType": "address",
          "name": "owner",
          "type": "address"
        },
        {
          "internalType": "address",
          "name": "spender",
          "type": "address"
        }
      ],
      "name": "allowance",
      "outputs": [
        {
          "internalType": "uint256",
          "name": "",
          "type": "uint256"
        }
      ],
      "stateMutability": "view",
      "type": "function"
    },
    {
      "inputs": [
        {
          "internalType": "address",
          "name": "spender",
          "type": "address"
        },
        {
          "internalType": "uint256",
          "name": "amount",
          "type": "uint256"
        }
      ],
      "name": "approve",
      "outputs": [
        {
          "internalType": "bool",
          "name": "",
          "type": "bool"
        }
      ],
      "stateMutability": "nonpayable",
      "type": "function"
    },
    {
      "inputs": [
        {
          "internalType": "address",
          "name": "account",
          "type": "address"
        }
      ],
      "name": "balanceOf",
      "outputs": [
        {
          "internalType": "uint256",
          "name": "",
          "type": "uint256"
        }
      ],
      "stateMutability": "view",
      "type": "function"
    },
    {
      "inputs": [
        {
          "internalType": "address",
          "name": "account",
          "type": "address"
        },
        {
          "internalType": "uint256",
          "name": "snapshotId",
          "type": "uint256"
        }
      ],
      "name": "balanceOfAt",
      "outputs": [
        {
          "internalType": "uint256",
          "name": "",
          "type": "uint256"
        }
      ],
      "stateMutability": "view",
      "type": "function"
    },
    {
      "inputs": [
        {
          "internalType": "uint256",
          "name": "amount",
          "type": "uint256"
        }
      ],
      "name": "burn",
      "outputs": [],
      "stateMutability": "nonpayable",
      "type": "function"
    },
    {
      "inputs": [
        {
          "internalType": "address",
          "name": "account",
          "type": "address"
        },
        {
          "internalType": "uint256",
          "name": "amount",
          "type": "uint256"
        }
      ],
      "name": "burnFrom",
      "outputs": [],
      "stateMutability": "nonpayable",
      "type": "function"
    },
    {
      "inputs": [
        {
          "internalType": "address",
          "name": "account",
          "type": "address"
        },
        {
          "internalType": "uint32",
          "name": "pos",
          "type": "uint32"
        }
      ],
      "name": "checkpoints",
      "outputs": [
        {
          "components": [
            {
              "internalType": "uint32",
              "name": "fromBlock",
              "type": "uint32"
            },
            {
              "internalType": "uint224",
              "name": "votes",
              "type": "uint224"
            }
          ],
          "internalType": "struct ERC20Votes.Checkpoint",
          "name": "",
          "type": "tuple"
        }
      ],
      "stateMutability": "view",
      "type": "function"
    },
    {
      "inputs": [],
      "name": "decimals",
      "outputs": [
        {
          "internalType": "uint8",
          "name": "",
          "type": "uint8"
        }
      ],
      "stateMutability": "view",
      "type": "function"
    },
    {
      "inputs": [
        {
          "internalType": "address",
          "name": "spender",
          "type": "address"
        },
        {
          "internalType": "uint256",
          "name": "subtractedValue",
          "type": "uint256"
        }
      ],
      "name": "decreaseAllowance",
      "outputs": [
        {
          "internalType": "bool",
          "name": "",
          "type": "bool"
        }
      ],
      "stateMutability": "nonpayable",
      "type": "function"
    },
    {
      "inputs": [
        {
          "internalType": "address",
          "name": "delegatee",
          "type": "address"
        }
      ],
      "name": "delegate",
      "outputs": [],
      "stateMutability": "nonpayable",
      "type": "function"
    },
    {
      "inputs": [
        {
          "internalType": "address",
          "name": "delegatee",
          "type": "address"
        },
        {
          "internalType": "uint256",
          "name": "nonce",
          "type": "uint256"
        },
        {
          "internalType": "uint256",
          "name": "expiry",
          "type": "uint256"
        },
        {
          "internalType": "uint8",
          "name": "v",
          "type": "uint8"
        },
        {
          "internalType": "bytes32",
          "name": "r",
          "type": "bytes32"
        },
        {
          "internalType": "bytes32",
          "name": "s",
          "type": "bytes32"
        }
      ],
      "name": "delegateBySig",
      "outputs": [],
      "stateMutability": "nonpayable",
      "type": "function"
    },
    {
      "inputs": [
        {
          "internalType": "address",
          "name": "account",
          "type": "address"
        }
      ],
      "name": "delegates",
      "outputs": [
        {
          "internalType": "address",
          "name": "",
          "type": "address"
        }
      ],
      "stateMutability": "view",
      "type": "function"
    },
    {
      "inputs": [
        {
          "internalType": "uint256",
          "name": "blockNumber",
          "type": "uint256"
        }
      ],
      "name": "getPastTotalSupply",
      "outputs": [
        {
          "internalType": "uint256",
          "name": "",
          "type": "uint256"
        }
      ],
      "stateMutability": "view",
      "type": "function"
    },
    {
      "inputs": [
        {
          "internalType": "address",
          "name": "account",
          "type": "address"
        },
        {
          "internalType": "uint256",
          "name": "blockNumber",
          "type": "uint256"
        }
      ],
      "name": "getPastVotes",
      "outputs": [
        {
          "internalType": "uint256",
          "name": "",
          "type": "uint256"
        }
      ],
      "stateMutability": "view",
      "type": "function"
    },
    {
      "inputs": [
        {
          "internalType": "address",
          "name": "account",
          "type": "address"
        }
      ],
      "name": "getVotes",
      "outputs": [
        {
          "internalType": "uint256",
          "name": "",
          "type": "uint256"
        }
      ],
      "stateMutability": "view",
      "type": "function"
    },
    {
      "inputs": [
        {
          "internalType": "address",
          "name": "spender",
          "type": "address"
        },
        {
          "internalType": "uint256",
          "name": "addedValue",
          "type": "uint256"
        }
      ],
      "name": "increaseAllowance",
      "outputs": [
        {
          "internalType": "bool",
          "name": "",
          "type": "bool"
        }
      ],
      "stateMutability": "nonpayable",
      "type": "function"
    },
    {
      "inputs": [
        {
          "internalType": "address",
          "name": "to",
          "type": "address"
        },
        {
          "internalType": "uint256",
          "name": "amount",
          "type": "uint256"
        }
      ],
      "name": "mint",
      "outputs": [],
      "stateMutability": "nonpayable",
      "type": "function"
    },
    {
      "inputs": [],
      "name": "name",
      "outputs": [
        {
          "internalType": "string",
          "name": "",
          "type": "string"
        }
      ],
      "stateMutability": "view",
      "type": "function"
    },
    {
      "inputs": [
        {
          "internalType": "address",
          "name": "owner",
          "type": "address"
        }
      ],
      "name": "nonces",
      "outputs": [
        {
          "internalType": "uint256",
          "name": "",
          "type": "uint256"
        }
      ],
      "stateMutability": "view",
      "type": "function"
    },
    {
      "inputs": [
        {
          "internalType": "address",
          "name": "account",
          "type": "address"
        }
      ],
      "name": "numCheckpoints",
      "outputs": [
        {
          "internalType": "uint32",
          "name": "",
          "type": "uint32"
        }
      ],
      "stateMutability": "view",
      "type": "function"
    },
    {
      "inputs": [],
      "name": "owner",
      "outputs": [
        {
          "internalType": "address",
          "name": "",
          "type": "address"
        }
      ],
      "stateMutability": "view",
      "type": "function"
    },
    {
      "inputs": [
        {
          "internalType": "address",
          "name": "owner",
          "type": "address"
        },
        {
          "internalType": "address",
          "name": "spender",
          "type": "address"
        },
        {
          "internalType": "uint256",
          "name": "value",
          "type": "uint256"
        },
        {
          "internalType": "uint256",
          "name": "deadline",
          "type": "uint256"
        },
        {
          "internalType": "uint8",
          "name": "v",
          "type": "uint8"
        },
        {
          "internalType": "bytes32",
          "name": "r",
          "type": "bytes32"
        },
        {
          "internalType": "bytes32",
          "name": "s",
          "type": "bytes32"
        }
      ],
      "name": "permit",
      "outputs": [],
      "stateMutability": "nonpayable",
      "type": "function"
    },
    {
      "inputs": [],
      "name": "renounceOwnership",
      "outputs": [],
      "stateMutability": "nonpayable",
      "type": "function"
    },
    {
      "inputs": [],
      "name": "snapshot",
      "outputs": [],
      "stateMutability": "nonpayable",
      "type": "function"
    },
    {
      "inputs": [],
      "name": "symbol",
      "outputs": [
        {
          "internalType": "string",
          "name": "",
          "type": "string"
        }
      ],
      "stateMutability": "view",
      "type": "function"
    },
    {
      "inputs": [],
      "name": "totalSupply",
      "outputs": [
        {
          "internalType": "uint256",
          "name": "",
          "type": "uint256"
        }
      ],
      "stateMutability": "view",
      "type": "function"
    },
    {
      "inputs": [
        {
          "internalType": "uint256",
          "name": "snapshotId",
          "type": "uint256"
        }
      ],
      "name": "totalSupplyAt",
      "outputs": [
        {
          "internalType": "uint256",
          "name": "",
          "type": "uint256"
        }
      ],
      "stateMutability": "view",
      "type": "function"
    },
    {
      "inputs": [
        {
          "internalType": "address",
          "name": "to",
          "type": "address"
        },
        {
          "internalType": "uint256",
          "name": "amount",
          "type": "uint256"
        }
      ],
      "name": "transfer",
      "outputs": [
        {
          "internalType": "bool",
          "name": "",
          "type": "bool"
        }
      ],
      "stateMutability": "nonpayable",
      "type": "function"
    },
    {
      "inputs": [
        {
          "internalType": "address",
          "name": "from",
          "type": "address"
        },
        {
          "internalType": "address",
          "name": "to",
          "type": "address"
        },
        {
          "internalType": "uint256",
          "name": "amount",
          "type": "uint256"
        }
      ],
      "name": "transferFrom",
      "outputs": [
        {
          "internalType": "bool",
          "name": "",
          "type": "bool"
        }
      ],
      "stateMutability": "nonpayable",
      "type": "function"
    },
    {
      "inputs": [
        {
          "internalType": "address",
          "name": "newOwner",
          "type": "address"
        }
      ],
      "name": "transferOwnership",
      "outputs": [],
      "stateMutability": "nonpayable",
      "type": "function"
    }
  ],
  "bytecode": "0x6101606040527f6e71edae12b1b97f4d1f60370fef10105fa2faae0126114a169c64845d6126c9610140523480156200003757600080fd5b506040518060400160405280601b81526020017f446563656e7472616c697a65642042657474696e6720546f6b656e000000000081525080604051806040016040528060018152602001603160f81b8152506040518060400160405280601b81526020017f446563656e7472616c697a65642042657474696e6720546f6b656e0000000000815250604051806040016040528060048152602001634445424560e01b8152508160039080519060200190620000f4929190620009df565b5080516200010a906004906020840190620009df565b5050506200012762000121620001dd60201b60201c565b620001e1565b815160208084019190912082518383012060e08290526101008190524660a0818152604080517f8b73c3c69bb8fe3d512ecc4cf759cc79239f7b179b0ffacaa9a75d522b39400f81880181905281830187905260608201869052608082019490945230818401528151808203909301835260c00190528051940193909320919290916080523060601b60c0526101205250620001d793503392506b033b2e3c9fd0803ce800000091505062000233565b62000b19565b3390565b600980546001600160a01b038381166001600160a01b0319831681179093556040519116919082907f8be0079c531659141344cd1fd0a4f28419497f9722a3daafe3b4186f6b6457e090600090a35050565b6200024a82826200024e60201b62000d421760201c565b5050565b6200026582826200030560201b62000dd21760201c565b6001600160e01b0362000279620004028216565b1115620002e65760405162461bcd60e51b815260206004820152603060248201527f4552433230566f7465733a20746f74616c20737570706c79207269736b73206f60448201526f766572666c6f77696e6720766f74657360801b60648201526084015b60405180910390fd5b620002ff600d62000ec56200040860201b17836200041d565b50505050565b6001600160a01b0382166200035d5760405162461bcd60e51b815260206004820152601f60248201527f45524332303a206d696e7420746f20746865207a65726f2061646472657373006044820152606401620002dd565b6200036b60008383620005cf565b80600260008282546200037f919062000a7b565b90915550506001600160a01b03821660009081526020819052604081208054839290620003ae90849062000a7b565b90915550506040518181526001600160a01b038316906000907fddf252ad1be2c89b69c2b068fc378daa952ba7f163c4a11628f55a4df523b3ef9060200160405180910390a36200024a60008383620005ec565b60025490565b600062000416828462000a7b565b9392505050565b8254600090819080156200046f57856200043960018362000a96565b815481106200044c576200044c62000b03565b60009182526020909120015464010000000090046001600160e01b031662000472565b60005b6001600160e01b031692506200048983858760201c565b9150600081118015620004cd57504386620004a660018462000a96565b81548110620004b957620004b962000b03565b60009182526020909120015463ffffffff16145b156200054157620004e9826200060460201b62000ed11760201c565b86620004f760018462000a96565b815481106200050a576200050a62000b03565b9060005260206000200160000160046101000a8154816001600160e01b0302191690836001600160e01b03160217905550620005c6565b85604051806040016040528062000563436200067360201b62000f3e1760201c565b63ffffffff16815260200162000584856200060460201b62000ed11760201c565b6001600160e01b0390811690915282546001810184556000938452602093849020835194909301519091166401000000000263ffffffff909316929092179101555b50935093915050565b620005e7838383620006da60201b62000fa31760201c565b505050565b620005e78383836200074660201b62000ff01760201c565b60006001600160e01b038211156200066f5760405162461bcd60e51b815260206004820152602760248201527f53616665436173743a2076616c756520646f65736e27742066697420696e20326044820152663234206269747360c81b6064820152608401620002dd565b5090565b600063ffffffff8211156200066f5760405162461bcd60e51b815260206004820152602660248201527f53616665436173743a2076616c756520646f65736e27742066697420696e203360448201526532206269747360d01b6064820152608401620002dd565b620006f2838383620005e760201b62000fc21760201c565b6001600160a01b03831662000716576200070c8262000792565b620005e7620007ca565b6001600160a01b03821662000730576200070c8362000792565b6200073b8362000792565b620005e78262000792565b6200075e838383620005e760201b62000fc21760201c565b6001600160a01b038381166000908152600b6020526040808220548584168352912054620005e792918216911683620007dc565b6001600160a01b03811660009081526005602090815260408083209183905290912054620007c7919062000917565b62000917565b50565b620007da6006620007c160025490565b565b816001600160a01b0316836001600160a01b031614158015620007ff5750600081115b15620005e7576001600160a01b038316156200088c576001600160a01b0383166000908152600c602090815260408220829162000849919062000966901b6200102217856200041d565b91509150846001600160a01b031660008051602062003011833981519152838360405162000881929190918252602082015260400190565b60405180910390a250505b6001600160a01b03821615620005e7576001600160a01b0382166000908152600c6020908152604082208291620008d0919062000408901b62000ec517856200041d565b91509150836001600160a01b031660008051602062003011833981519152838360405162000908929190918252602082015260400190565b60405180910390a25050505050565b60006200092362000974565b905080620009318462000992565b1015620005e7578254600180820185556000858152602080822090930193909355938401805494850181558252902090910155565b600062000416828462000a96565b60006200098d6008620009db60201b6200102e1760201c565b905090565b8054600090620009a457506000919050565b81548290620009b69060019062000a96565b81548110620009c957620009c962000b03565b90600052602060002001549050919050565b5490565b828054620009ed9062000ab0565b90600052602060002090601f01602090048101928262000a11576000855562000a5c565b82601f1062000a2c57805160ff191683800117855562000a5c565b8280016001018555821562000a5c579182015b8281111562000a5c57825182559160200191906001019062000a3f565b506200066f9291505b808211156200066f576000815560010162000a65565b6000821982111562000a915762000a9162000aed565b500190565b60008282101562000aab5762000aab62000aed565b500390565b600181811c9082168062000ac557607f821691505b6020821081141562000ae757634e487b7160e01b600052602260045260246000fd5b50919050565b634e487b7160e01b600052601160045260246000fd5b634e487b7160e01b600052603260045260246000fd5b60805160a05160c05160601c60e05161010051610120516101405161249a62000b776000396000610b160152600061144b0152600061149a01526000611475015260006113ce015260006113f801526000611422015261249a6000f3fe608060405234801561001057600080fd5b50600436106101e55760003560e01c8063715018a61161010f5780639ab24eb0116100a2578063d505accf11610071578063d505accf14610431578063dd62ed3e14610444578063f1127ed81461047d578063f2fde38b146104ba57600080fd5b80639ab24eb0146103e5578063a457c2d7146103f8578063a9059cbb1461040b578063c3cda5201461041e57600080fd5b80638e539e8c116100de5780638e539e8c146103af57806395d89b41146103c25780639711715a146103ca578063981b24d0146103d257600080fd5b8063715018a61461037057806379cc6790146103785780637ecebe001461038b5780638da5cb5b1461039e57600080fd5b80633a46b1a811610187578063587cde1e11610156578063587cde1e146102c85780635c19a95c1461030c5780636fcfff451461031f57806370a082311461034757600080fd5b80633a46b1a81461027a57806340c10f191461028d57806342966c68146102a25780634ee2cd7e146102b557600080fd5b806323b872dd116101c357806323b872dd1461023d578063313ce567146102505780633644e5151461025f578063395093511461026757600080fd5b806306fdde03146101ea578063095ea7b31461020857806318160ddd1461022b575b600080fd5b6101f26104cd565b6040516101ff9190612312565b60405180910390f35b61021b610216366004612237565b61055f565b60405190151581526020016101ff565b6002545b6040519081526020016101ff565b61021b61024b366004612191565b610579565b604051601281526020016101ff565b61022f61059d565b61021b610275366004612237565b6105ac565b61022f610288366004612237565b6105eb565b6102a061029b366004612237565b61066a565b005b6102a06102b03660046122f9565b6106a2565b61022f6102c3366004612237565b6106af565b6102f46102d6366004612143565b6001600160a01b039081166000908152600b60205260409020541690565b6040516001600160a01b0390911681526020016101ff565b6102a061031a366004612143565b610708565b61033261032d366004612143565b610712565b60405163ffffffff90911681526020016101ff565b61022f610355366004612143565b6001600160a01b031660009081526020819052604090205490565b6102a0610734565b6102a0610386366004612237565b61076a565b61022f610399366004612143565b61077f565b6009546001600160a01b03166102f4565b61022f6103bd3660046122f9565b61079d565b6101f26107f9565b6102a0610808565b61022f6103e03660046122f9565b61083a565b61022f6103f3366004612143565b610865565b61021b610406366004612237565b6108ec565b61021b610419366004612237565b61097e565b6102a061042c366004612261565b61098c565b6102a061043f3660046121cd565b610ac2565b61022f61045236600461215e565b6001600160a01b03918216600090815260016020908152604080832093909416825291909152205490565b61049061048b3660046122b9565b610c26565b60408051825163ffffffff1681526020928301516001600160e01b031692810192909252016101ff565b6102a06104c8366004612143565b610caa565b6060600380546104dc906123ed565b80601f0160208091040260200160405190810160405280929190818152602001828054610508906123ed565b80156105555780601f1061052a57610100808354040283529160200191610555565b820191906000526020600020905b81548152906001019060200180831161053857829003601f168201915b5050505050905090565b60003361056d818585611032565b60019150505b92915050565b600033610587858285611156565b6105928585856111e2565b506001949350505050565b60006105a76113c1565b905090565b3360008181526001602090815260408083206001600160a01b038716845290915281205490919061056d90829086906105e690879061239c565b611032565b60004382106106415760405162461bcd60e51b815260206004820152601f60248201527f4552433230566f7465733a20626c6f636b206e6f7420796574206d696e65640060448201526064015b60405180910390fd5b6001600160a01b0383166000908152600c6020526040902061066390836114e8565b9392505050565b6009546001600160a01b031633146106945760405162461bcd60e51b815260040161063890612367565b61069e82826115a5565b5050565b6106ac33826115af565b50565b6001600160a01b0382166000908152600560205260408120819081906106d69085906115b9565b91509150816106fd576001600160a01b0385166000908152602081905260409020546106ff565b805b95945050505050565b6106ac33826116b0565b6001600160a01b0381166000908152600c602052604081205461057390610f3e565b6009546001600160a01b0316331461075e5760405162461bcd60e51b815260040161063890612367565b6107686000611729565b565b610775823383611156565b61069e82826115af565b6001600160a01b0381166000908152600a6020526040812054610573565b60004382106107ee5760405162461bcd60e51b815260206004820152601f60248201527f4552433230566f7465733a20626c6f636b206e6f7420796574206d696e6564006044820152606401610638565b610573600d836114e8565b6060600480546104dc906123ed565b6009546001600160a01b031633146108325760405162461bcd60e51b815260040161063890612367565b6106ac61177b565b600080600061084a8460066115b9565b915091508161085b5760025461085d565b805b949350505050565b6001600160a01b0381166000908152600c602052604081205480156108d9576001600160a01b0383166000908152600c602052604090206108a76001836123d6565b815481106108b7576108b761244e565b60009182526020909120015464010000000090046001600160e01b03166108dc565b60005b6001600160e01b03169392505050565b3360008181526001602090815260408083206001600160a01b0387168452909152812054909190838110156109715760405162461bcd60e51b815260206004820152602560248201527f45524332303a2064656372656173656420616c6c6f77616e63652062656c6f77604482015264207a65726f60d81b6064820152608401610638565b6105928286868403611032565b60003361056d8185856111e2565b834211156109dc5760405162461bcd60e51b815260206004820152601d60248201527f4552433230566f7465733a207369676e617475726520657870697265640000006044820152606401610638565b604080517fe48329057bfd03d55e49b547132e39cffd9c1820ad7b9d4c5307691425d15adf60208201526001600160a01b038816918101919091526060810186905260808101859052600090610a5690610a4e9060a001604051602081830303815290604052805190602001206117d5565b858585611823565b9050610a618161184b565b8614610aaf5760405162461bcd60e51b815260206004820152601960248201527f4552433230566f7465733a20696e76616c6964206e6f6e6365000000000000006044820152606401610638565b610ab981886116b0565b50505050505050565b83421115610b125760405162461bcd60e51b815260206004820152601d60248201527f45524332305065726d69743a206578706972656420646561646c696e650000006044820152606401610638565b60007f0000000000000000000000000000000000000000000000000000000000000000888888610b418c61184b565b6040805160208101969096526001600160a01b0394851690860152929091166060840152608083015260a082015260c0810186905260e0016040516020818303038152906040528051906020012090506000610b9c826117d5565b90506000610bac82878787611823565b9050896001600160a01b0316816001600160a01b031614610c0f5760405162461bcd60e51b815260206004820152601e60248201527f45524332305065726d69743a20696e76616c6964207369676e617475726500006044820152606401610638565b610c1a8a8a8a611032565b50505050505050505050565b60408051808201909152600080825260208201526001600160a01b0383166000908152600c60205260409020805463ffffffff8416908110610c6a57610c6a61244e565b60009182526020918290206040805180820190915291015463ffffffff8116825264010000000090046001600160e01b0316918101919091529392505050565b6009546001600160a01b03163314610cd45760405162461bcd60e51b815260040161063890612367565b6001600160a01b038116610d395760405162461bcd60e51b815260206004820152602660248201527f4f776e61626c653a206e6577206f776e657220697320746865207a65726f206160448201526564647265737360d01b6064820152608401610638565b6106ac81611729565b610d4c8282610dd2565b6002546001600160e01b031015610dbe5760405162461bcd60e51b815260206004820152603060248201527f4552433230566f7465733a20746f74616c20737570706c79207269736b73206f60448201526f766572666c6f77696e6720766f74657360801b6064820152608401610638565b610dcc600d610ec583611873565b50505050565b6001600160a01b038216610e285760405162461bcd60e51b815260206004820152601f60248201527f45524332303a206d696e7420746f20746865207a65726f2061646472657373006044820152606401610638565b610e34600083836119ec565b8060026000828254610e46919061239c565b90915550506001600160a01b03821660009081526020819052604081208054839290610e7390849061239c565b90915550506040518181526001600160a01b038316906000907fddf252ad1be2c89b69c2b068fc378daa952ba7f163c4a11628f55a4df523b3ef9060200160405180910390a361069e600083836119f7565b6000610663828461239c565b60006001600160e01b03821115610f3a5760405162461bcd60e51b815260206004820152602760248201527f53616665436173743a2076616c756520646f65736e27742066697420696e20326044820152663234206269747360c81b6064820152608401610638565b5090565b600063ffffffff821115610f3a5760405162461bcd60e51b815260206004820152602660248201527f53616665436173743a2076616c756520646f65736e27742066697420696e203360448201526532206269747360d01b6064820152608401610638565b6001600160a01b038316610fc757610fba82611a02565b610fc2611a34565b505050565b6001600160a01b038216610fde57610fba83611a02565b610fe783611a02565b610fc282611a02565b6001600160a01b038381166000908152600b6020526040808220548584168352912054610fc292918216911683611a42565b600061066382846123d6565b5490565b6001600160a01b0383166110945760405162461bcd60e51b8152602060048201526024808201527f45524332303a20617070726f76652066726f6d20746865207a65726f206164646044820152637265737360e01b6064820152608401610638565b6001600160a01b0382166110f55760405162461bcd60e51b815260206004820152602260248201527f45524332303a20617070726f766520746f20746865207a65726f206164647265604482015261737360f01b6064820152608401610638565b6001600160a01b0383811660008181526001602090815260408083209487168084529482529182902085905590518481527f8c5be1e5ebec7d5bd14f71427d1e84f3dd0314c0f7b2291e5b200ac8c7c3b925910160405180910390a3505050565b6001600160a01b038381166000908152600160209081526040808320938616835292905220546000198114610dcc57818110156111d55760405162461bcd60e51b815260206004820152601d60248201527f45524332303a20696e73756666696369656e7420616c6c6f77616e63650000006044820152606401610638565b610dcc8484848403611032565b6001600160a01b0383166112465760405162461bcd60e51b815260206004820152602560248201527f45524332303a207472616e736665722066726f6d20746865207a65726f206164604482015264647265737360d81b6064820152608401610638565b6001600160a01b0382166112a85760405162461bcd60e51b815260206004820152602360248201527f45524332303a207472616e7366657220746f20746865207a65726f206164647260448201526265737360e81b6064820152608401610638565b6112b38383836119ec565b6001600160a01b0383166000908152602081905260409020548181101561132b5760405162461bcd60e51b815260206004820152602660248201527f45524332303a207472616e7366657220616d6f756e7420657863656564732062604482015265616c616e636560d01b6064820152608401610638565b6001600160a01b0380851660009081526020819052604080822085850390559185168152908120805484929061136290849061239c565b92505081905550826001600160a01b0316846001600160a01b03167fddf252ad1be2c89b69c2b068fc378daa952ba7f163c4a11628f55a4df523b3ef846040516113ae91815260200190565b60405180910390a3610dcc8484846119f7565b6000306001600160a01b037f00000000000000000000000000000000000000000000000000000000000000001614801561141a57507f000000000000000000000000000000000000000000000000000000000000000046145b1561144457507f000000000000000000000000000000000000000000000000000000000000000090565b50604080517f00000000000000000000000000000000000000000000000000000000000000006020808301919091527f0000000000000000000000000000000000000000000000000000000000000000828401527f000000000000000000000000000000000000000000000000000000000000000060608301524660808301523060a0808401919091528351808403909101815260c0909201909252805191012090565b8154600090815b8181101561154c5760006115038284611b7f565b9050848682815481106115185761151861244e565b60009182526020909120015463ffffffff16111561153857809250611546565b61154381600161239c565b91505b506114ef565b8115611590578461155e6001846123d6565b8154811061156e5761156e61244e565b60009182526020909120015464010000000090046001600160e01b0316611593565b60005b6001600160e01b031695945050505050565b61069e8282610d42565b61069e8282611b9a565b600080600084116116055760405162461bcd60e51b815260206004820152601660248201527504552433230536e617073686f743a20696420697320360541b6044820152606401610638565b61160d611bb2565b84111561165c5760405162461bcd60e51b815260206004820152601d60248201527f4552433230536e617073686f743a206e6f6e6578697374656e742069640000006044820152606401610638565b60006116688486611bbd565b84549091508114156116815760008092509250506116a9565b60018460010182815481106116985761169861244e565b906000526020600020015492509250505b9250929050565b6001600160a01b038281166000818152600b60208181526040808420805485845282862054949093528787166001600160a01b03198416811790915590519190951694919391928592917f3134e8a2e6d97e929a7e54011ea5485d7d196dd5f0ba4d4ef95803e8e3fc257f9190a4610dcc828483611a42565b600980546001600160a01b038381166001600160a01b0319831681179093556040519116919082907f8be0079c531659141344cd1fd0a4f28419497f9722a3daafe3b4186f6b6457e090600090a35050565b600061178b600880546001019055565b6000611795611bb2565b90507f8030e83b04d87bef53480e26263266d6ca66863aa8506aca6f2559d18aa1cb67816040516117c891815260200190565b60405180910390a1919050565b60006105736117e26113c1565b8360405161190160f01b6020820152602281018390526042810182905260009060620160405160208183030381529060405280519060200120905092915050565b600080600061183487878787611c80565b9150915061184181611d6d565b5095945050505050565b6001600160a01b0381166000908152600a602052604090208054600181018255905b50919050565b8254600090819080156118be578561188c6001836123d6565b8154811061189c5761189c61244e565b60009182526020909120015464010000000090046001600160e01b03166118c1565b60005b6001600160e01b031692506118da83858763ffffffff16565b9150600081118015611918575043866118f46001846123d6565b815481106119045761190461244e565b60009182526020909120015463ffffffff16145b156119785761192682610ed1565b866119326001846123d6565b815481106119425761194261244e565b9060005260206000200160000160046101000a8154816001600160e01b0302191690836001600160e01b031602179055506119e3565b85604051806040016040528061198d43610f3e565b63ffffffff1681526020016119a185610ed1565b6001600160e01b0390811690915282546001810184556000938452602093849020835194909301519091166401000000000263ffffffff909316929092179101555b50935093915050565b610fc2838383610fa3565b610fc2838383610ff0565b6001600160a01b038116600090815260056020908152604080832091839052909120546106ac9190611f28565b611f28565b6107686006611a2f60025490565b816001600160a01b0316836001600160a01b031614158015611a645750600081115b15610fc2576001600160a01b03831615611af2576001600160a01b0383166000908152600c602052604081208190611a9f9061102285611873565b91509150846001600160a01b03167fdec2bacdd2f05b59de34da9b523dff8be42e5e38e818c82fdb0bae774387a7248383604051611ae7929190918252602082015260400190565b60405180910390a250505b6001600160a01b03821615610fc2576001600160a01b0382166000908152600c602052604081208190611b2890610ec585611873565b91509150836001600160a01b03167fdec2bacdd2f05b59de34da9b523dff8be42e5e38e818c82fdb0bae774387a7248383604051611b70929190918252602082015260400190565b60405180910390a25050505050565b6000611b8e60028484186123b4565b6106639084841661239c565b611ba48282611f72565b610dcc600d61102283611873565b60006105a760085490565b8154600090611bce57506000610573565b82546000905b80821015611c2a576000611be88383611b7f565b905084868281548110611bfd57611bfd61244e565b90600052602060002001541115611c1657809150611c24565b611c2181600161239c565b92505b50611bd4565b600082118015611c5f57508385611c426001856123d6565b81548110611c5257611c5261244e565b9060005260206000200154145b15611c7857611c6f6001836123d6565b92505050610573565b509050610573565b6000807f7fffffffffffffffffffffffffffffff5d576e7357a4501ddfe92f46681b20a0831115611cb75750600090506003611d64565b8460ff16601b14158015611ccf57508460ff16601c14155b15611ce05750600090506004611d64565b6040805160008082526020820180845289905260ff881692820192909252606081018690526080810185905260019060a0016020604051602081039080840390855afa158015611d34573d6000803e3d6000fd5b5050604051601f1901519150506001600160a01b038116611d5d57600060019250925050611d64565b9150600090505b94509492505050565b6000816004811115611d8157611d81612438565b1415611d8a5750565b6001816004811115611d9e57611d9e612438565b1415611dec5760405162461bcd60e51b815260206004820152601860248201527f45434453413a20696e76616c6964207369676e617475726500000000000000006044820152606401610638565b6002816004811115611e0057611e00612438565b1415611e4e5760405162461bcd60e51b815260206004820152601f60248201527f45434453413a20696e76616c6964207369676e6174757265206c656e677468006044820152606401610638565b6003816004811115611e6257611e62612438565b1415611ebb5760405162461bcd60e51b815260206004820152602260248201527f45434453413a20696e76616c6964207369676e6174757265202773272076616c604482015261756560f01b6064820152608401610638565b6004816004811115611ecf57611ecf612438565b14156106ac5760405162461bcd60e51b815260206004820152602260248201527f45434453413a20696e76616c6964207369676e6174757265202776272076616c604482015261756560f01b6064820152608401610638565b6000611f32611bb2565b905080611f3e846120d3565b1015610fc2578254600180820185556000858152602080822090930193909355938401805494850181558252902090910155565b6001600160a01b038216611fd25760405162461bcd60e51b815260206004820152602160248201527f45524332303a206275726e2066726f6d20746865207a65726f206164647265736044820152607360f81b6064820152608401610638565b611fde826000836119ec565b6001600160a01b038216600090815260208190526040902054818110156120525760405162461bcd60e51b815260206004820152602260248201527f45524332303a206275726e20616d6f756e7420657863656564732062616c616e604482015261636560f01b6064820152608401610638565b6001600160a01b03831660009081526020819052604081208383039055600280548492906120819084906123d6565b90915550506040518281526000906001600160a01b038516907fddf252ad1be2c89b69c2b068fc378daa952ba7f163c4a11628f55a4df523b3ef9060200160405180910390a3610fc2836000846119f7565b80546000906120e457506000919050565b815482906120f4906001906123d6565b815481106121045761210461244e565b90600052602060002001549050919050565b919050565b80356001600160a01b038116811461211657600080fd5b803560ff8116811461211657600080fd5b60006020828403121561215557600080fd5b6106638261211b565b6000806040838503121561217157600080fd5b61217a8361211b565b91506121886020840161211b565b90509250929050565b6000806000606084860312156121a657600080fd5b6121af8461211b565b92506121bd6020850161211b565b9150604084013590509250925092565b600080600080600080600060e0888a0312156121e857600080fd5b6121f18861211b565b96506121ff6020890161211b565b9550604088013594506060880135935061221b60808901612132565b925060a0880135915060c0880135905092959891949750929550565b6000806040838503121561224a57600080fd5b6122538361211b565b946020939093013593505050565b60008060008060008060c0878903121561227a57600080fd5b6122838761211b565b9550602087013594506040870135935061229f60608801612132565b92506080870135915060a087013590509295509295509295565b600080604083850312156122cc57600080fd5b6122d58361211b565b9150602083013563ffffffff811681146122ee57600080fd5b809150509250929050565b60006020828403121561230b57600080fd5b5035919050565b600060208083528351808285015260005b8181101561233f57858101830151858201604001528201612323565b81811115612351576000604083870101525b50601f01601f1916929092016040019392505050565b6020808252818101527f4f776e61626c653a2063616c6c6572206973206e6f7420746865206f776e6572604082015260600190565b600082198211156123af576123af612422565b500190565b6000826123d157634e487b7160e01b600052601260045260246000fd5b500490565b6000828210156123e8576123e8612422565b500390565b600181811c9082168061240157607f821691505b6020821081141561186d57634e487b7160e01b600052602260045260246000fd5b634e487b7160e01b600052601160045260246000fd5b634e487b7160e01b600052602160045260246000fd5b634e487b7160e01b600052603260045260246000fdfea26469706673582212201ae5ca72121b5ebfc349c02a9a1f7c0eda43ac3e83c3ba08898086fd5ab1fa5f64736f6c63430008070033dec2bacdd2f05b59de34da9b523dff8be42e5e38e818c82fdb0bae774387a724",
  "linkReferences": {},
  "deployedLinkReferences": {}
}