{
  "_format": "hh-sol-artifact-1",
  "contractName": "Lottery",
  "sourceName": "contracts/StakingContract.sol",
  "abi": [
    {
      "inputs": [
        {
          "internalType": "address",
          "name": "_debeTokenAddress",
          "type": "address"
        }
      ],
      "stateMutability": "nonpayable",
      "type": "constructor"
    },
    {
      "anonymous": false,
      "inputs": [
        {
          "indexed": true,
          "internalType": "address",
          "name": "previousOwner",
          "type": "address"
        },
        {
          "indexed": true,
          "internalType": "address",
          "name": "newOwner",
          "type": "address"
        }
      ],
      "name": "OwnershipTransferred",
      "type": "event"
    },
    {
      "inputs": [
        {
          "internalType": "address",
          "name": "",
          "type": "address"
        },
        {
          "internalType": "address",
          "name": "",
          "type": "address"
        }
      ],
      "name": "allowance",
      "outputs": [
        {
          "internalType": "uint256",
          "name": "",
          "type": "uint256"
        }
      ],
      "stateMutability": "view",
      "type": "function"
    },
    {
      "inputs": [
        {
          "internalType": "address",
          "name": "",
          "type": "address"
        }
      ],
      "name": "balances",
      "outputs": [
        {
          "internalType": "uint256",
          "name": "stakedAmount",
          "type": "uint256"
        },
        {
          "internalType": "string",
          "name": "betOnThis",
          "type": "string"
        },
        {
          "internalType": "bool",
          "name": "winner",
          "type": "bool"
        },
        {
          "internalType": "bool",
          "name": "rewarded",
          "type": "bool"
        },
        {
          "internalType": "uint256",
          "name": "blockNumber",
          "type": "uint256"
        }
      ],
      "stateMutability": "view",
      "type": "function"
    },
    {
      "inputs": [],
      "name": "calculatePrize",
      "outputs": [
        {
          "internalType": "uint256",
          "name": "winAmount",
          "type": "uint256"
        }
      ],
      "stateMutability": "view",
      "type": "function"
    },
    {
      "inputs": [
        {
          "internalType": "address",
          "name": "_token",
          "type": "address"
        }
      ],
      "name": "claimRewards",
      "outputs": [],
      "stateMutability": "nonpayable",
      "type": "function"
    },
    {
      "inputs": [],
      "name": "closeLottery",
      "outputs": [],
      "stateMutability": "nonpayable",
      "type": "function"
    },
    {
      "inputs": [],
      "name": "debeToken",
      "outputs": [
        {
          "internalType": "contract IERC20",
          "name": "",
          "type": "address"
        }
      ],
      "stateMutability": "view",
      "type": "function"
    },
    {
      "inputs": [],
      "name": "endLottery",
      "outputs": [],
      "stateMutability": "nonpayable",
      "type": "function"
    },
    {
      "inputs": [
        {
          "internalType": "string",
          "name": "_betOnThis",
          "type": "string"
        },
        {
          "internalType": "address",
          "name": "_token",
          "type": "address"
        },
        {
          "internalType": "uint256",
          "name": "_amount",
          "type": "uint256"
        }
      ],
      "name": "enterLottery",
      "outputs": [],
      "stateMutability": "payable",
      "type": "function"
    },
    {
      "inputs": [
        {
          "internalType": "uint256",
          "name": "_betAmount",
          "type": "uint256"
        }
      ],
      "name": "getEntranceFee",
      "outputs": [
        {
          "internalType": "uint256",
          "name": "entryFee",
          "type": "uint256"
        }
      ],
      "stateMutability": "pure",
      "type": "function"
    },
    {
      "inputs": [
        {
          "internalType": "address",
          "name": "_user",
          "type": "address"
        }
      ],
      "name": "getUserTVL",
      "outputs": [
        {
          "internalType": "uint256",
          "name": "",
          "type": "uint256"
        }
      ],
      "stateMutability": "view",
      "type": "function"
    },
    {
      "inputs": [],
      "name": "getWinPool",
      "outputs": [],
      "stateMutability": "nonpayable",
      "type": "function"
    },
    {
      "inputs": [
        {
          "internalType": "string",
          "name": "_result",
          "type": "string"
        }
      ],
      "name": "getWinners",
      "outputs": [],
      "stateMutability": "nonpayable",
      "type": "function"
    },
    {
      "inputs": [],
      "name": "lottery_state",
      "outputs": [
        {
          "internalType": "enum Lottery.LOTTERY_STATE",
          "name": "",
          "type": "uint8"
        }
      ],
      "stateMutability": "view",
      "type": "function"
    },
    {
      "inputs": [],
      "name": "owner",
      "outputs": [
        {
          "internalType": "address",
          "name": "",
          "type": "address"
        }
      ],
      "stateMutability": "view",
      "type": "function"
    },
    {
      "inputs": [
        {
          "internalType": "uint256",
          "name": "",
          "type": "uint256"
        }
      ],
      "name": "playerList",
      "outputs": [
        {
          "internalType": "address payable",
          "name": "",
          "type": "address"
        }
      ],
      "stateMutability": "view",
      "type": "function"
    },
    {
      "inputs": [],
      "name": "renounceOwnership",
      "outputs": [],
      "stateMutability": "nonpayable",
      "type": "function"
    },
    {
      "inputs": [
        {
          "internalType": "address",
          "name": "",
          "type": "address"
        },
        {
          "internalType": "address",
          "name": "",
          "type": "address"
        }
      ],
      "name": "stakingBalance",
      "outputs": [
        {
          "internalType": "uint256",
          "name": "",
          "type": "uint256"
        }
      ],
      "stateMutability": "view",
      "type": "function"
    },
    {
      "inputs": [],
      "name": "startLottery",
      "outputs": [],
      "stateMutability": "nonpayable",
      "type": "function"
    },
    {
      "inputs": [],
      "name": "totalValueLocked",
      "outputs": [
        {
          "internalType": "uint256",
          "name": "",
          "type": "uint256"
        }
      ],
      "stateMutability": "view",
      "type": "function"
    },
    {
      "inputs": [
        {
          "internalType": "address",
          "name": "newOwner",
          "type": "address"
        }
      ],
      "name": "transferOwnership",
      "outputs": [],
      "stateMutability": "nonpayable",
      "type": "function"
    },
    {
      "inputs": [
        {
          "internalType": "address",
          "name": "_token",
          "type": "address"
        }
      ],
      "name": "updateStakeBeforeStart",
      "outputs": [],
      "stateMutability": "nonpayable",
      "type": "function"
    },
    {
      "inputs": [],
      "name": "winPool",
      "outputs": [
        {
          "internalType": "uint256",
          "name": "",
          "type": "uint256"
        }
      ],
      "stateMutability": "view",
      "type": "function"
    },
    {
      "inputs": [
        {
          "internalType": "uint256",
          "name": "",
          "type": "uint256"
        }
      ],
      "name": "winnerList",
      "outputs": [
        {
          "internalType": "address payable",
          "name": "",
          "type": "address"
        }
      ],
      "stateMutability": "view",
      "type": "function"
    }
  ],
  "bytecode": "0x608060405234801561001057600080fd5b50604051611a2f380380611a2f83398101604081905261002f916100ad565b6100383361005d565b600180546001600160a01b0319166001600160a01b03929092169190911790556100dd565b600080546001600160a01b038381166001600160a01b0319831681178455604051919092169283917f8be0079c531659141344cd1fd0a4f28419497f9722a3daafe3b4186f6b6457e09190a35050565b6000602082840312156100bf57600080fd5b81516001600160a01b03811681146100d657600080fd5b9392505050565b611943806100ec6000396000f3fe6080604052600436106101405760003560e01c806373be230f116100b657806395a4c5251161006f57806395a4c52514610381578063ae6d9073146103a1578063dd62ed3e146103c1578063ec18154e146103f9578063ef5cfb8c1461040f578063f2fde38b1461042f57600080fd5b806373be230f146102d15780637fe23f62146102f157806381447999146103075780638731c6301461032e5780638da5cb5b1461034e5780638dedd3cc1461036c57600080fd5b806336b56ca21161010857806336b56ca21461021157806354b7c678146102265780635578027e1461023957806364c96eef146102715780636fd09816146102a7578063715018a6146102bc57600080fd5b80631593a8c714610145578063160344e21461015c57806327e235e31461017157806329161a00146101ab5780632c65681a146101f1575b600080fd5b34801561015157600080fd5b5061015a61044f565b005b34801561016857600080fd5b5061015a610499565b34801561017d57600080fd5b5061019161018c366004611524565b61053d565b6040516101a295949392919061178d565b60405180910390f35b3480156101b757600080fd5b506101e36101c636600461153f565b600260209081526000928352604080842090915290825290205481565b6040519081526020016101a2565b3480156101fd57600080fd5b5061015a61020c366004611524565b6105fb565b34801561021d57600080fd5b5061015a6106fd565b61015a6102343660046115c9565b61080c565b34801561024557600080fd5b50610259610254366004611620565b610a65565b6040516001600160a01b0390911681526020016101a2565b34801561027d57600080fd5b506101e361028c366004611524565b6001600160a01b031660009081526004602052604090205490565b3480156102b357600080fd5b5061015a610a8f565b3480156102c857600080fd5b5061015a610acc565b3480156102dd57600080fd5b50600154610259906001600160a01b031681565b3480156102fd57600080fd5b506101e360075481565b34801561031357600080fd5b506009546103219060ff1681565b6040516101a2919061171d565b34801561033a57600080fd5b506101e3610349366004611620565b610b00565b34801561035a57600080fd5b506000546001600160a01b0316610259565b34801561037857600080fd5b506101e3610b72565b34801561038d57600080fd5b5061015a61039c366004611594565b610c2a565b3480156103ad57600080fd5b506102596103bc366004611620565b610e72565b3480156103cd57600080fd5b506101e36103dc36600461153f565b600360209081526000928352604080842090915290825290205481565b34801561040557600080fd5b506101e360085481565b34801561041b57600080fd5b5061015a61042a366004611524565b610e82565b34801561043b57600080fd5b5061015a61044a366004611524565b61104b565b6000546001600160a01b031633146104825760405162461bcd60e51b815260040161047990611758565b60405180910390fd5b600980546002919060ff19166001835b0217905550565b6000546001600160a01b031633146104c35760405162461bcd60e51b815260040161047990611758565b600160095460ff1660028111156104dc576104dc6118cb565b146105295760405162461bcd60e51b815260206004820152601e60248201527f43616e27742073746172742061206e6577206c6f7474657279207965742100006044820152606401610479565b600980546000919060ff1916600183610492565b6004602052600090815260409020805460018201805491929161055f9061185f565b80601f016020809104026020016040519081016040528092919081815260200182805461058b9061185f565b80156105d85780601f106105ad576101008083540402835291602001916105d8565b820191906000526020600020905b8154815290600101906020018083116105bb57829003601f168201915b505050506002830154600390930154919260ff8082169361010090920416915085565b600060095460ff166002811115610614576106146118cb565b1461061e57600080fd5b3360008181526004602081905260409182902054915163a9059cbb60e01b8152908101839052602481018290526001600160a01b0384169063a9059cbb90604401602060405180830381600087803b15801561067957600080fd5b505af115801561068d573d6000803e3d6000fd5b505050506040513d601f19601f820116820180604052508101906106b19190611572565b506001600160a01b038216600090815260046020526040812080548392906106da90849061181c565b9250508190555080600860008282546106f3919061181c565b9091555050505050565b6000546001600160a01b031633146107275760405162461bcd60e51b815260040161047990611758565b600260095460ff166002811115610740576107406118cb565b1461078d5760405162461bcd60e51b815260206004820152601d60248201527f4c6f7474657279206e6565647320746f2066696e6973682066697273740000006044820152606401610479565b60005b6006548110156108015760046000600683815481106107b1576107b16118e1565b60009182526020808320909101546001600160a01b0316835282019290925260400181205460078054919290916107e99084906117c3565b909155508190506107f98161189a565b915050610790565b5061080a610a8f565b565b600060095460ff166002811115610825576108256118cb565b1461082f57600080fd5b6000811161087f5760405162461bcd60e51b815260206004820152601a60248201527f416d6f756e74206d757374206265206d6f7265207468616e20300000000000006044820152606401610479565b6001835110156108d15760405162461bcd60e51b815260206004820152601b60248201527f4e6f2077696e6e657220686173206265656e2073656c656374656400000000006044820152606401610479565b338160006108de82610b00565b905060006108ec828461181c565b60015490915061091b906001600160a01b031685735a8a9cffb9d17879d0e2c0e8ce19df43b15956f1856110e3565b600154610933906001600160a01b03168530846110e3565b60058054600181019091557f036b6384b5eca791c62761152d0c79bb0604c104a5fb6f4eb0703f3154bb3db00180546001600160a01b0319166001600160a01b03868116918217909255908716600090815260026020908152604080832093835292905220546109a49082906117c3565b6001600160a01b0380881660009081526002602090815260408083209389168352928152828220939093556004909252812080548392906109e69084906117c3565b90915550506001600160a01b03841660009081526004602090815260409091208851610a1a926001909201918a01906113eb565b506001600160a01b0384166000908152600460205260408120436003820155600201805461ffff1916905560088054839290610a579084906117c3565b909155505050505050505050565b60068181548110610a7557600080fd5b6000918252602090912001546001600160a01b0316905081565b6000546001600160a01b03163314610ab95760405162461bcd60e51b815260040161047990611758565b600980546001919060ff19168280610492565b6000546001600160a01b03163314610af65760405162461bcd60e51b815260040161047990611758565b61080a6000611143565b6000603280831015610b545760405162461bcd60e51b815260206004820152601760248201527f4d696e696d756d20626574206e6f7420726561636865640000000000000000006044820152606401610479565b6064610b618460056117fd565b610b6b91906117db565b9392505050565b600654600090339060011415610b8a57505060085490565b60065460011015610c21576007546001600160a01b038216600090815260046020526040812054909190610bc0906127106117fd565b610bca91906117db565b905061271081600754600854610be0919061181c565b610bea91906117fd565b610bf491906117db565b6001600160a01b038316600090815260046020526040902054909350610c1a90846117c3565b9250505090565b600091505b5090565b6000546001600160a01b03163314610c545760405162461bcd60e51b815260040161047990611758565b600260095460ff166002811115610c6d57610c6d6118cb565b14610cba5760405162461bcd60e51b815260206004820152601d60248201527f4c6f7474657279206e6565647320746f2066696e6973682066697273740000006044820152606401610479565b60005b600554811015610e665781604051602001610cd89190611665565b604051602081830303815290604052805190602001206004600060058481548110610d0557610d056118e1565b60009182526020808320909101546001600160a01b0316835282810193909352604091820190209051610d3f926001929092019101611681565b604051602081830303815290604052805190602001201415610e035760016004600060058481548110610d7457610d746118e1565b6000918252602080832091909101546001600160a01b031683528201929092526040019020600201805460ff1916911515919091179055600580546006919083908110610dc357610dc36118e1565b60009182526020808320909101548354600181018555938352912090910180546001600160a01b0319166001600160a01b03909216919091179055610e54565b60006004600060058481548110610e1c57610e1c6118e1565b6000918252602080832091909101546001600160a01b031683528201929092526040019020600201805460ff19169115159190911790555b80610e5e8161189a565b915050610cbd565b50610e6f6106fd565b50565b60058181548110610a7557600080fd5b33600160095460ff166002811115610e9c57610e9c6118cb565b14610ea657600080fd5b6001600160a01b03811660009081526004602052604090206002015460ff161515600114610f0d5760405162461bcd60e51b81526020600482015260146024820152732cb7ba9030b932903737ba1030903bb4b73732b960611b6044820152606401610479565b6001600160a01b038116600090815260046020526040902060020154610100900460ff1615610f8a5760405162461bcd60e51b8152602060048201526024808201527f596f75206861766520636c61696d656420746865207265776172647320616c726044820152636561647960e01b6064820152608401610479565b816001600160a01b031663a9059cbb82610fa2610b72565b6040516001600160e01b031960e085901b1681526001600160a01b0390921660048301526024820152604401602060405180830381600087803b158015610fe857600080fd5b505af1158015610ffc573d6000803e3d6000fd5b505050506040513d601f19601f820116820180604052508101906110209190611572565b506001600160a01b03166000908152600460205260409020600201805461ff00191661010017905550565b6000546001600160a01b031633146110755760405162461bcd60e51b815260040161047990611758565b6001600160a01b0381166110da5760405162461bcd60e51b815260206004820152602660248201527f4f776e61626c653a206e6577206f776e657220697320746865207a65726f206160448201526564647265737360d01b6064820152608401610479565b610e6f81611143565b604080516001600160a01b0385811660248301528416604482015260648082018490528251808303909101815260849091019091526020810180516001600160e01b03166323b872dd60e01b17905261113d908590611193565b50505050565b600080546001600160a01b038381166001600160a01b0319831681178455604051919092169283917f8be0079c531659141344cd1fd0a4f28419497f9722a3daafe3b4186f6b6457e09190a35050565b60006111e8826040518060400160405280602081526020017f5361666545524332303a206c6f772d6c6576656c2063616c6c206661696c6564815250856001600160a01b031661126a9092919063ffffffff16565b80519091501561126557808060200190518101906112069190611572565b6112655760405162461bcd60e51b815260206004820152602a60248201527f5361666545524332303a204552433230206f7065726174696f6e20646964206e6044820152691bdd081cdd58d8d9595960b21b6064820152608401610479565b505050565b60606112798484600085611281565b949350505050565b6060824710156112e25760405162461bcd60e51b815260206004820152602660248201527f416464726573733a20696e73756666696369656e742062616c616e636520666f6044820152651c8818d85b1b60d21b6064820152608401610479565b6001600160a01b0385163b6113395760405162461bcd60e51b815260206004820152601d60248201527f416464726573733a2063616c6c20746f206e6f6e2d636f6e74726163740000006044820152606401610479565b600080866001600160a01b031685876040516113559190611665565b60006040518083038185875af1925050503d8060008114611392576040519150601f19603f3d011682016040523d82523d6000602084013e611397565b606091505b50915091506113a78282866113b2565b979650505050505050565b606083156113c1575081610b6b565b8251156113d15782518084602001fd5b8160405162461bcd60e51b81526004016104799190611745565b8280546113f79061185f565b90600052602060002090601f016020900481019282611419576000855561145f565b82601f1061143257805160ff191683800117855561145f565b8280016001018555821561145f579182015b8281111561145f578251825591602001919060010190611444565b50610c269291505b80821115610c265760008155600101611467565b80356001600160a01b038116811461149257600080fd5b919050565b600082601f8301126114a857600080fd5b813567ffffffffffffffff808211156114c3576114c36118f7565b604051601f8301601f19908116603f011681019082821181831017156114eb576114eb6118f7565b8160405283815286602085880101111561150457600080fd5b836020870160208301376000602085830101528094505050505092915050565b60006020828403121561153657600080fd5b610b6b8261147b565b6000806040838503121561155257600080fd5b61155b8361147b565b91506115696020840161147b565b90509250929050565b60006020828403121561158457600080fd5b81518015158114610b6b57600080fd5b6000602082840312156115a657600080fd5b813567ffffffffffffffff8111156115bd57600080fd5b61127984828501611497565b6000806000606084860312156115de57600080fd5b833567ffffffffffffffff8111156115f557600080fd5b61160186828701611497565b9350506116106020850161147b565b9150604084013590509250925092565b60006020828403121561163257600080fd5b5035919050565b60008151808452611651816020860160208601611833565b601f01601f19169290920160200192915050565b60008251611677818460208701611833565b9190910192915050565b600080835481600182811c91508083168061169d57607f831692505b60208084108214156116bd57634e487b7160e01b86526022600452602486fd5b8180156116d157600181146116e25761170f565b60ff1986168952848901965061170f565b60008a81526020902060005b868110156117075781548b8201529085019083016116ee565b505084890196505b509498975050505050505050565b602081016003831061173f57634e487b7160e01b600052602160045260246000fd5b91905290565b602081526000610b6b6020830184611639565b6020808252818101527f4f776e61626c653a2063616c6c6572206973206e6f7420746865206f776e6572604082015260600190565b85815260a0602082015260006117a660a0830187611639565b941515604083015250911515606083015260809091015292915050565b600082198211156117d6576117d66118b5565b500190565b6000826117f857634e487b7160e01b600052601260045260246000fd5b500490565b6000816000190483118215151615611817576118176118b5565b500290565b60008282101561182e5761182e6118b5565b500390565b60005b8381101561184e578181015183820152602001611836565b8381111561113d5750506000910152565b600181811c9082168061187357607f821691505b6020821081141561189457634e487b7160e01b600052602260045260246000fd5b50919050565b60006000198214156118ae576118ae6118b5565b5060010190565b634e487b7160e01b600052601160045260246000fd5b634e487b7160e01b600052602160045260246000fd5b634e487b7160e01b600052603260045260246000fd5b634e487b7160e01b600052604160045260246000fdfea264697066735822122069867ac8523e0e8ecac08e8ec6999e439e51c44110cacb1898573fe48d0acea464736f6c63430008070033",
  "linkReferences": {},
  "deployedLinkReferences": {}
}